:020000040000FA
:04000000C3EF3FF01B
:107F86000001C6EF3FF09590CA82CA80CA8CCA8AA1
:107F9600CA88CA86270ECB6ECA84000E036E000EF0
:107FA600026E9EA2D9EF3FF0DBEF3FF0D4EF3FF039
:107FB6009E92024A032A640E02180310D8A4E6EF22
:107FC6003FF0E8EF3FF0D4EF3FF0000E036E000EF7
:107FD600026E83B0F1EF3FF0F4EF3FF0010EF5EFE4
:107FE6003FF0000EFF0A016E83500118FE0B0118C8
:0A7FF600836ED4EF3FF000EF00F0BF
:020000040020DA
:08000000FFFFFFFFFFFFFFFF00
:020000040030CA
:0E00000000051F1FFF8385FF0FC00FE00F409C
:00000001FF
