:020000040000FA
:1000000002EF00F04BEF06F0FF00FF00FF00FF00E3
:100800000001000A006400E80310272564203D2051
:10081000256300000F0E176E000E186ED2EF04F065
:10082000250E1B18D8B417EF04F019EF04F01EEFD3
:1008300004F01B5050EC06F0D2EF04F0000E156EE1
:1008400031EF04F017C0D9FF18C0DAFFDF501B6E7C
:10085000020E1726000E18221B5050EC06F0D2EFA5
:1008600004F00DC0F6FF0EC0F7FF0D4A0E2A080077
:10087000F5CF1BF01B50136E146A1450000AD8B445
:1008800044EF04F02CEF04F01350000AD8B4E3EF67
:1008900004F0630AD8B422EF04F0070AD8B457EF83
:1008A00004F00D0AD8B457EF04F02CEF04F017C091
:1008B000D9FF18C0DAFFDECF19F0DDCF1AF0020E33
:1008C0001726000E18221ABE6AEF04F068EF04F033
:1008D00070EF04F0030E1512196C1A1ED8B01A2A04
:1008E000010E1B6E1B50020D010EF324F66E080E56
:1008F000F420F76E0900F550195C0900F5501A58FC
:10090000D8B085EF04F087EF04F089EF04F093EF9F
:1009100004F01B2A050E1B18D8A491EF04F093EFE6
:1009200004F072EF04F015C013F0030E1316D8B4E0
:100930009CEF04F09EEF04F0A1EF04F02D0E50ECBC
:1009400006F01BC016F0C9EF04F01650020D010EA0
:10095000F324F66E080EF420F76E0900F5CF03F0CD
:100960000A00F5CF04F019C001F01AC002F069ECDA
:1009700005F001C008F002C009F0000E0B6E0A0E6F
:100980000A6EA3EC05F00850300F1B6E1B5050ECA4
:1009900006F016061628D8A4D0EF04F0D2EF04F023
:1009A000A5EF04F00DC0F6FF0EC0F7FF0D4A0E2AAA
:1009B0000800F5CF1BF01B50D8A4E1EF04F0E3EFE3
:1009C00004F010EF04F01200026E838202C001F006
:1009D000010E0116013A83500118EF0B0118836EC6
:1009E00002C001F0D8900132010E0116013A014611
:1009F00083500118DF0B0118836E02C001F0D890FC
:100A00000132D8900132010E0116013A0146014629
:100A100083500118BF0B0118836E02C001F0D890FB
:100A20000132D8900132D8900132010E0116013204
:100A30000132835001187F0B0118836E100EE82ECF
:100A4000FED700D08392100EE82EFED700D0120001
:100A500083928398839A839C839E410E056EEE0E4B
:100A6000E82EFED7052EFCD700D0030EE4EC04F0F0
:100A7000060E056E300EE82EFED7052EFCD700D0F0
:100A8000030EE4EC04F0210EE82EFED700F0030E76
:100A9000E4EC04F0020EE4EC04F0010E036E000E30
:100AA00025EC06F0030E056E980EE82EFED7052EF7
:100AB000FCD7280E036E000E25EC06F00C0E036E1C
:100AC000000E25EC06F0060E036E000E25EC06F077
:100AD0001200000E066E000E056E03500410D8B40E
:100AE00074EF05F076EF05F09EEF05F0010E076E4E
:100AF0007EEF05F0D89003360436072A04AE83EF64
:100B000005F085EF05F07AEF05F0D890053606364A
:100B10000350015C04500258D8A091EF05F093EF08
:100B200005F098EF05F00350015E0450025A05806D
:100B3000D89004320332072E85EF05F005C001F08E
:100B400006C002F012000A500B10D8B4AAEF05F04C
:100B5000ACEF05F0D0EF05F0010E0C6EB4EF05F030
:100B6000D8900A360B360C2A0BAEB9EF05F0BBEF66
:100B700005F0B0EF05F00A50085C0B500958D8A0FA
:100B8000C4EF05F0C6EF05F0CAEF05F00A50085EA5
:100B90000B50095AD8900B320A320C2EBBEF05F0DD
:100BA00008C008F009C009F01200000E836E000EA4
:100BB000956E28EC05F037EC06F0000E1E6E010E67
:100BC0001D6E050E056E010E04EC06F00B0E0D6E8B
:100BD000080E0E6E1DC00FF01EC010F01DC011F0EB
:100BE0001EC012F00AEC04F0C30E1C6ECD0EE82EEF
:100BF000FED71C2EFCD700F037EC06F01D4A1E2A4B
:100C0000E1EF05F002EF00F0066E000E076E06043D
:100C1000D8A40DEF06F00FEF06F011EF06F0800EEE
:100C2000076E020E0618D8A418EF06F01AEF06F0A9
:100C30001CEF06F0C00E076E07500524076E07C0B4
:100C400003F0000E25EC06F01200046E04B002D092
:100C5000839001D0838000D000D000F003380F0BC8
:100C6000E4EC04F003500F0BE4EC04F01200010E6E
:100C7000036E000E25EC06F0030E056E980EE82EAE
:100C8000FED7052EFCD71200056E05C003F0010E3D
:100C900025EC06F01200000EF86E0001D5EF05F00D
:100CA000066E065044EC06F01200FF00FF00FF0045
:020000040030CA
:0E00000000001F1EFF8181FF0FC00FE00F40A8
:00000001FF
