:020000040000FA
:0400000006EF00F017
:020004000000FA
:040008003CEF00F0D9
:04000C00010E936EE0
:10001000000E956E836E026A036AF288D09EF28E9D
:10002000F28C81721AEC00F02EEC00F038EC00F04B
:1000300011EF00F0BE0E016E25EC00F025EC00F093
:1000400025EC00F0012EF8D71200FF0E006E000024
:10005000000000000000002EFAD71200090E022A4C
:1000600002641200026A032A03641200036A120087
:1000700003380210836E1200F292026A036A836AE6
:0200800010006E
:020000040030CA
:0100010000FE
:010003001EDE
:010005008179
:00000001FF
