:020000040000FA
:1000000002EF00F0CEEF07F0FF00FF00FF00FF005F
:1008000000010000000A00000064000000E803008E
:100810000010270000A086010040420F008096983B
:100820000000E1F50500CA9A3B5265696E6963698B
:10083000616E646F2E2E2E0054656D706F20313AFC
:1008400020256C646D730054656D706F20323A2002
:10085000256C646D730041706572746520706172FF
:100860006100696E696369617221212100526F64C0
:10087000616E646F2E2E2E000000000E816E010E40
:10088000936E000E826E000E946E000E836E000E4C
:10089000956E46EC07F0BAEC07F0030E056E010EFC
:1008A00087EC07F0560E176E080E186E59EC05F01F
:1008B000030E056E020E87EC07F0620E176E080E2F
:1008C000186E59EC05F0000E386E000E376E000EF3
:1008D000346E000E336E000E366E000E356E000E56
:1008E0002B6E000E2C6E000E2D6E000E2E6E000E66
:1008F0002F6E000E306E000E316E000E326E000E46
:10090000396E000E3A6E000E3B6E000E3C6E81A0FA
:100910008CEF04F08EEF04F04CEF05F08280030EB4
:100920002A6E8A0E296E560EE82EFED7292EFCD787
:100930002A2EFAD78290BAEC07F06D0E176E080EC9
:10094000186E59EC05F0000E386E010E376E4CEF44
:1009500005F0C80E00D0E82EFDD7010E3926000E96
:100960003A223B223C2281A2B8EF04F0BAEF04F015
:10097000C7EF04F0000E346E010E336E39C02BF059
:100980003AC02CF03BC02DF03CC02EF0828281A4F6
:10099000CCEF04F0CEEF04F0DBEF04F0000E366E87
:1009A000010E356E39C02FF03AC030F03BC031F047
:1009B0003CC032F0828433043410D8A4E2EF04F057
:1009C000E4EF04F04CEF05F035043610D8A4EBEF5B
:1009D00004F0EDEF04F04CEF05F0BAEC07F0010E77
:1009E000056E010E87EC07F0380E176E080E186EB4
:1009F0002BC019F02CC01AF02DC01BF02EC01CF01B
:100A000059EC05F0010E056E020E87EC07F0470E5B
:100A1000176E080E186E2FC019F030C01AF031C0D2
:100A20001BF032C01CF059EC05F081A01AEF05F064
:100A30001CEF05F015EF05F0829082928294BAECDB
:100A400007F0290E176E080E186E59EC05F0060E09
:100A50002A6E130E296EAE0EE82EFED7292EFCD775
:100A60002A2EFAD7BAEC07F0010E056E010E87ECBC
:100A700007F0560E176E080E186E59EC05F0010EB1
:100A8000056E020E87EC07F0620E176E080E186EE8
:100A900059EC05F063EF04F037503810D8A453EF49
:100AA00005F055EF05F0A9EF04F063EF04F002EF55
:100AB00000F0190E216E000E226E5AEF06F0250E80
:100AC0002818D8B466EF05F068EF05F06DEF05F073
:100AD0002850D3EC07F05AEF06F0000E236E72EFA9
:100AE00005F0238817C0F6FF18C0F7FF174A182A29
:100AF0000800F5CF28F028501D6E1E6A1E50000A0F
:100B0000D8B485EF05F05AEF06F01D50000AD8B4AE
:100B10006BEF06F0640AD8B498EF05F00D0AD8B46C
:100B200098EF05F0050AD8B471EF05F05AEF06F01A
:100B300023A89DEF05F09FEF05F0B1EF05F021C070
:100B4000D9FF22C0DAFFDECF24F0DECF25F0DECFE2
:100B500026F0DECF27F0040E2126000E2222C2EF5F
:100B600005F021C0D9FF22C0DAFFDECF24F0DDCFAF
:100B700025F0000E25BEFF0E266E276E020E2126E2
:100B8000000E222227BEC9EF05F0C7EF05F0D3EF14
:100B900005F0030E2312271E261E251E246C000EB0
:100BA000252226222722010E286E2850040D010E30
:100BB000F324F66E080EF420F76E0900F550245C5D
:100BC0000900F55025580900F55026580900F55040
:100BD0002758D8B0EEEF05F0F0EF05F0F2EF05F092
:100BE000FCEF05F0282A0A0E2818D8A4FAEF05F021
:100BF000FCEF05F0D5EF05F023C01DF0030E1D1628
:100C0000D8B405EF06F007EF06F00AEF06F02D0E58
:100C1000D3EC07F028C01FF0206A4DEF06F01FC08C
:100C20001DF020C01EF0D8901D361E36D8901D36FF
:100C30001E36010E1D24F66E080E1E20F76E0900EA
:100C4000F5CF05F00900F5CF06F00900F5CF07F064
:100C50000A00F5CF08F024C001F025C002F026C03C
:100C600003F027C004F06CEC06F001C00EF002C0E7
:100C70000FF003C010F004C011F00A0E126E000E47
:100C8000136E000E146E000E156EBEEC06F00E50C4
:100C9000300F286E2850D3EC07F01F06D8A020068E
:100CA0001F2806E12028D8A458EF06F05AEF06F0D6
:100CB0000FEF06F017C0F6FF18C0F7FF174A182A03
:100CC0000800F5CF28F02850D8A469EF06F06BEFA4
:100CD00006F05FEF05F01200000E096E000E0A6EBE
:100CE000000E0B6E000E0C6E05500610071008105B
:100CF000D8B47DEF06F07FEF06F0B5EF06F0010EF9
:100D00000D6E89EF06F0D8900536063607360836A0
:100D10000D2A08AE8EEF06F090EF06F083EF06F096
:100D2000D89009360A360B360C360550015C065051
:100D300002580750035808500458D8A0A2EF06F0F4
:100D4000A4EF06F0ADEF06F00550015E0650025A22
:100D50000750035A0850045A0980D89008320732C5
:100D6000063205320D2E90EF06F009C001F00AC0E0
:100D700002F00BC003F00CC004F01200125013106C
:100D800014101510D8B4C7EF06F0C9EF06F0F9EF4C
:100D900006F0010E166ED3EF06F0D8901236133619
:100DA00014361536162A15AED8EF06F0DAEF06F02F
:100DB000CDEF06F012500E5C13500F58145010581F
:100DC00015501158D8A0E7EF06F0E9EF06F0F1EF63
:100DD00006F012500E5E13500F5A1450105A155050
:100DE000115AD8901532143213321232162EDAEF0D
:100DF00006F00EC00EF00FC00FF010C010F011C0C2
:100E000011F01200026E838202C001F0010E011681
:100E1000013A83500118EF0B0118836E02C001F0F4
:100E2000D8900132010E0116013A01468350011893
:100E3000DF0B0118836E02C001F0D8900132D89008
:100E40000132010E0116013A014601468350011894
:100E5000BF0B0118836E02C001F0D8900132D89008
:100E60000132D8900132010E011601320132835055
:100E700001187F0B0118836E100EE82EFED700D0EC
:100E80008392100EE82EFED700D012008392839832
:100E9000839A839C839E410E056EEE0EE82EFED74C
:100EA000052EFCD700D0030E02EC07F0060E056EEF
:100EB000300EE82EFED7052EFCD700D0030E02EC34
:100EC00007F0210EE82EFED700F0030E02EC07F02B
:100ED000020E02EC07F0010E036E000EA8EC07F004
:100EE000030E056E980EE82EFED7052EFCD7280EB1
:100EF000036E000EA8EC07F00C0E036E000EA8ECBB
:100F000007F0060E036E000EA8EC07F01200066E46
:100F1000000E076E0604D8A490EF07F092EF07F0DA
:100F200094EF07F0800E076E020E0618D8A49BEF10
:100F300007F09DEF07F09FEF07F0C00E076E075018
:100F40000524076E07C003F0000EA8EC07F012009E
:100F5000046E04B002D0839001D0838000D000D012
:100F600000F003380F0B02EC07F003500F0B02ECFC
:100F700007F01200010E036E000EA8EC07F0030E3E
:100F8000056E980EE82EFED7052EFCD71200056ED2
:100F900005C003F0010EA8EC07F01200000EF86E79
:100FA00000013DEF04F0066E0650C7EC07F012009A
:020000040030CA
:0E00000000001F1EFF8181FF0FC00FE00F40A8
:00000001FF
