:020000040000FA
:1000000002EF00F015EF07F0FF00FF00FF00FF0018
:1008000000010000000A00000064000000E803008E
:100810000010270000A086010040420F008096983B
:100820000000E1F50500CA9A3B41706572746520CD
:100830007061726120696E696369617200526569F5
:100840006E696369616E646F2E2E2E0054656D7043
:100850006F20313A20256C646D730054656D706FA4
:1008600020323A20256C646D7300526F64616E64AF
:100870006F2E2E2E0000190E216E000E226E3CEF00
:1008800005F0250E2818D8B448EF04F04AEF04F01C
:100890004FEF04F028501AEC07F03CEF05F0000E83
:1008A000236E54EF04F0238817C0F6FF18C0F7FF3B
:1008B000174A182A0800F5CF28F028501D6E1E6A26
:1008C0001E50000AD8B467EF04F03CEF05F01D504D
:1008D000000AD8B44DEF05F0640AD8B47AEF04F0FA
:1008E0000D0AD8B47AEF04F0050AD8B453EF04F037
:1008F0003CEF05F023A87FEF04F081EF04F093EFC5
:1009000004F021C0D9FF22C0DAFFDECF24F0DECF11
:1009100025F0DECF26F0DECF27F0040E2126000ED4
:100920002222A4EF04F021C0D9FF22C0DAFFDECFDB
:1009300024F0DDCF25F0000E25BEFF0E266E276EBB
:10094000020E2126000E222227BEABEF04F0A9EFF3
:1009500004F0B5EF04F0030E2312271E261E251EF9
:10096000246C000E252226222722010E286E2850F4
:10097000040D010EF324F66E080EF420F76E090044
:10098000F550245C0900F55025580900F55026580B
:100990000900F5502758D8B0D0EF04F0D2EF04F09A
:1009A000D4EF04F0DEEF04F0282A0A0E2818D8A4A9
:1009B000DCEF04F0DEEF04F0B7EF04F023C01DF02D
:1009C000030E1D16D8B4E7EF04F0E9EF04F0ECEFE6
:1009D00004F02D0E1AEC07F028C01FF0206A2FEF4C
:1009E00005F01FC01DF020C01EF0D8901D361E3629
:1009F000D8901D361E36010E1D24F66E080E1E20E0
:100A0000F76E0900F5CF05F00900F5CF06F00900F3
:100A1000F5CF07F00A00F5CF08F024C001F025C09B
:100A200002F026C003F027C004F0D4EC05F001C0AA
:100A30000EF002C00FF003C010F004C011F00A0E57
:100A4000126E000E136E000E146E000E156E26EC64
:100A500006F00E50300F286E28501AEC07F01F06D3
:100A6000D8A020061F2806E12028D8A43AEF05F0D8
:100A70003CEF05F0F1EF04F017C0F6FF18C0F7FFE8
:100A8000174A182A0800F5CF28F02850D8A44BEFB1
:100A900005F04DEF05F041EF04F01200000E296E55
:100AA000000E2A6E000E2B6E000E2C6E000E836E52
:100AB000000E956E8190010E936EAEEC06F001EC87
:100AC00007F0290E176E080E186E3BEC04F0000EAE
:100AD0002E6E000E2D6E81A070EF05F072EF05F006
:100AE00080EF05F001EC07F06A0E176E080E186E25
:100AF0003BEC04F0000E2E6E010E2D6EC7EF05F0DC
:100B00008150C7EF05F0C80E00D0E82EFDD7010ECA
:100B10002926000E2A222B222C2281A292EF05F0F8
:100B200094EF05F0AEEF05F001EC07F04C0E176EF8
:100B3000080E186E29C019F02AC01AF02BC01BF03D
:100B40002CC01CF03BEC04F0000E296E000E2A6E47
:100B5000000E2B6E000E2C6E67EF05F081A4B3EF34
:100B600005F0B5EF05F0C7EF05F001EC07F05B0EFF
:100B7000176E080E186E29C019F02AC01AF02BC083
:100B80001BF02CC01CF03BEC04F0A4EF05F02D5042
:100B90002E10D8A4CEEF05F0D0EF05F083EF05F0CE
:100BA00067EF05F002EF00F0000E096E000E0A6E0E
:100BB000000E0B6E000E0C6E05500610071008108C
:100BC000D8B4E5EF05F0E7EF05F01DEF06F0010EF4
:100BD0000D6EF1EF05F0D89005360636073608366B
:100BE0000D2A08AEF6EF05F0F8EF05F0EBEF05F093
:100BF000D89009360A360B360C360550015C065083
:100C000002580750035808500458D8A00AEF06F0BD
:100C10000CEF06F015EF06F00550015E0650025A83
:100C20000750035A0850045A0980D89008320732F6
:100C3000063205320D2EF8EF05F009C001F00AC0AA
:100C400002F00BC003F00CC004F01200125013109D
:100C500014101510D8B42FEF06F031EF06F061EF45
:100C600006F0010E166E3BEF06F0D89012361336E2
:100C700014361536162A15AE40EF06F042EF06F090
:100C800035EF06F012500E5C13500F5814501058E8
:100C900015501158D8A04FEF06F051EF06F059EF5C
:100CA00006F012500E5E13500F5A1450105A155081
:100CB000115AD8901532143213321232162E42EFD6
:100CC00006F00EC00EF00FC00FF010C010F011C0F3
:100CD00011F01200026E838202C001F0010E0116B3
:100CE000013A83500118EF0B0118836E02C001F026
:100CF000D8900132010E0116013A014683500118C5
:100D0000DF0B0118836E02C001F0D8900132D89039
:100D10000132010E0116013A0146014683500118C5
:100D2000BF0B0118836E02C001F0D8900132D89039
:100D30000132D8900132010E011601320132835086
:100D400001187F0B0118836E100EE82EFED700D01D
:100D50008392100EE82EFED700D012008392839863
:100D6000839A839C839E410E056EEE0EE82EFED77D
:100D7000052EFCD700D0030E6AEC06F0060E056EB9
:100D8000300EE82EFED7052EFCD700D0030E6AECFD
:100D900006F0210EE82EFED700F0030E6AEC06F0F6
:100DA000020E6AEC06F0010E036E000EEFEC06F088
:100DB000030E056E980EE82EFED7052EFCD7280EE2
:100DC000036E000EEFEC06F00C0E036E000EEFEC5F
:100DD00006F0060E036E000EEFEC06F01200046E35
:100DE00004B002D0839001D0838000D000D000F006
:100DF00003380F0B6AEC06F003500F0B6AEC06F099
:100E00001200010E036E000EEFEC06F0030E056EED
:100E1000980EE82EFED7052EFCD71200056E05C0F1
:100E200003F0010EEFEC06F01200000EF86E000168
:100E30004EEF05F0066E06500EEC07F01200FF00B4
:020000040030CA
:0E00000000001F1EFF8181FF0FC00FE00F40A8
:00000001FF
